{
  "_format": "hh-sol-artifact-1",
  "contractName": "VotesContract",
  "sourceName": "contracts/VotesContract.sol",
  "abi": [
    {
      "anonymous": false,
      "inputs": [
        {
          "indexed": false,
          "internalType": "uint16",
          "name": "groupCandidatesId",
          "type": "uint16"
        },
        {
          "indexed": false,
          "internalType": "uint16",
          "name": "subElectionsId",
          "type": "uint16"
        },
        {
          "indexed": false,
          "internalType": "uint16",
          "name": "vote_status_id",
          "type": "uint16"
        }
      ],
      "name": "VoteStored",
      "type": "event"
    },
    {
      "inputs": [
        {
          "internalType": "uint16",
          "name": "_subElectionsId",
          "type": "uint16"
        }
      ],
      "name": "getVotesBySubElection",
      "outputs": [
        {
          "internalType": "uint16[]",
          "name": "",
          "type": "uint16[]"
        },
        {
          "internalType": "uint16[]",
          "name": "",
          "type": "uint16[]"
        },
        {
          "internalType": "uint16[]",
          "name": "",
          "type": "uint16[]"
        }
      ],
      "stateMutability": "view",
      "type": "function"
    },
    {
      "inputs": [
        {
          "internalType": "uint16",
          "name": "_groupCandidatesId",
          "type": "uint16"
        },
        {
          "internalType": "uint16",
          "name": "_subElectionsId",
          "type": "uint16"
        },
        {
          "internalType": "uint16",
          "name": "_vote_status_id",
          "type": "uint16"
        }
      ],
      "name": "storeVote",
      "outputs": [],
      "stateMutability": "nonpayable",
      "type": "function"
    },
    {
      "inputs": [
        {
          "internalType": "uint256",
          "name": "",
          "type": "uint256"
        }
      ],
      "name": "votes",
      "outputs": [
        {
          "internalType": "uint16",
          "name": "groupCandidatesId",
          "type": "uint16"
        },
        {
          "internalType": "uint16",
          "name": "subElectionsId",
          "type": "uint16"
        },
        {
          "internalType": "uint16",
          "name": "vote_status_id",
          "type": "uint16"
        }
      ],
      "stateMutability": "view",
      "type": "function"
    }
  ],
  "bytecode": "0x6080604052348015600f57600080fd5b506109738061001f6000396000f3fe608060405234801561001057600080fd5b50600436106100415760003560e01c8063120caff5146100465780632f75cecb146100785780635df8133014610094575b600080fd5b610060600480360381019061005b91906105cc565b6100c6565b60405161006f939291906106b7565b60405180910390f35b610092600480360381019061008d9190610703565b6103df565b005b6100ae60048036038101906100a9919061078c565b61052d565b6040516100bd939291906107c8565b60405180910390f35b60608060606000600160008661ffff16815260200190815260200160002080548060200260200160405190810160405280929190818152602001828054801561012e57602002820191906000526020600020905b81548152602001906001019080831161011a575b505050505090506000815167ffffffffffffffff811115610152576101516107ff565b5b6040519080825280602002602001820160405280156101805781602001602082028036833780820191505090505b5090506000825167ffffffffffffffff8111156101a05761019f6107ff565b5b6040519080825280602002602001820160405280156101ce5781602001602082028036833780820191505090505b5090506000835167ffffffffffffffff8111156101ee576101ed6107ff565b5b60405190808252806020026020018201604052801561021c5781602001602082028036833780820191505090505b50905060005b84518110156103ca576000805490508582815181106102445761024361082e565b5b60200260200101511061028c576040517f08c379a0000000000000000000000000000000000000000000000000000000008152600401610283906108ba565b60405180910390fd5b6000808683815181106102a2576102a161082e565b5b6020026020010151815481106102bb576102ba61082e565b5b906000526020600020016040518060600160405290816000820160009054906101000a900461ffff1661ffff1661ffff1681526020016000820160029054906101000a900461ffff1661ffff1661ffff1681526020016000820160049054906101000a900461ffff1661ffff1661ffff16815250509050806000015185838151811061034a5761034961082e565b5b602002602001019061ffff16908161ffff168152505080602001518483815181106103785761037761082e565b5b602002602001019061ffff16908161ffff168152505080604001518383815181106103a6576103a561082e565b5b602002602001019061ffff16908161ffff1681525050508080600101915050610222565b50828282965096509650505050509193909250565b600060405180606001604052808561ffff1681526020018461ffff1681526020018361ffff1681525090506000819080600181540180825580915050600190039060005260206000200160009091909190915060008201518160000160006101000a81548161ffff021916908361ffff16021790555060208201518160000160026101000a81548161ffff021916908361ffff16021790555060408201518160000160046101000a81548161ffff021916908361ffff1602179055505050600160008461ffff16815260200190815260200160002060016000805490506104c69190610909565b90806001815401808255809150506001900390600052602060002001600090919091909150557fa2407253771eb7553b1483257d672f99f3c90e24c91e8c5624814de9a5f21d4a84848460405161051f939291906107c8565b60405180910390a150505050565b6000818154811061053d57600080fd5b906000526020600020016000915090508060000160009054906101000a900461ffff16908060000160029054906101000a900461ffff16908060000160049054906101000a900461ffff16905083565b600080fd5b600061ffff82169050919050565b6105a981610592565b81146105b457600080fd5b50565b6000813590506105c6816105a0565b92915050565b6000602082840312156105e2576105e161058d565b5b60006105f0848285016105b7565b91505092915050565b600081519050919050565b600082825260208201905092915050565b6000819050602082019050919050565b61062e81610592565b82525050565b60006106408383610625565b60208301905092915050565b6000602082019050919050565b6000610664826105f9565b61066e8185610604565b935061067983610615565b8060005b838110156106aa5781516106918882610634565b975061069c8361064c565b92505060018101905061067d565b5085935050505092915050565b600060608201905081810360008301526106d18186610659565b905081810360208301526106e58185610659565b905081810360408301526106f98184610659565b9050949350505050565b60008060006060848603121561071c5761071b61058d565b5b600061072a868287016105b7565b935050602061073b868287016105b7565b925050604061074c868287016105b7565b9150509250925092565b6000819050919050565b61076981610756565b811461077457600080fd5b50565b60008135905061078681610760565b92915050565b6000602082840312156107a2576107a161058d565b5b60006107b084828501610777565b91505092915050565b6107c281610592565b82525050565b60006060820190506107dd60008301866107b9565b6107ea60208301856107b9565b6107f760408301846107b9565b949350505050565b7f4e487b7100000000000000000000000000000000000000000000000000000000600052604160045260246000fd5b7f4e487b7100000000000000000000000000000000000000000000000000000000600052603260045260246000fd5b600082825260208201905092915050565b7f496e646963652066756572612064652072616e676f0000000000000000000000600082015250565b60006108a460158361085d565b91506108af8261086e565b602082019050919050565b600060208201905081810360008301526108d381610897565b9050919050565b7f4e487b7100000000000000000000000000000000000000000000000000000000600052601160045260246000fd5b600061091482610756565b915061091f83610756565b9250828203905081811115610937576109366108da565b5b9291505056fea26469706673582212205df9c560b48e8fdb5670a434408c23932718a6ed8b94f26a3a60f0213c4c4dd364736f6c634300081b0033",
  "linkReferences": {},
  "deployedLinkReferences": {}
}